{
  "_format": "hh-sol-artifact-1",
  "contractName": "Ruleta",
  "sourceName": "contracts/Ruleta.sol",
  "abi": [
    {
      "inputs": [],
      "name": "funds",
      "outputs": [
        {
          "internalType": "uint256",
          "name": "",
          "type": "uint256"
        }
      ],
      "stateMutability": "view",
      "type": "function"
    },
    {
      "inputs": [],
      "name": "getFunds",
      "outputs": [
        {
          "internalType": "uint256",
          "name": "",
          "type": "uint256"
        }
      ],
      "stateMutability": "view",
      "type": "function"
    },
    {
      "inputs": [
        {
          "internalType": "uint256",
          "name": "amount",
          "type": "uint256"
        },
        {
          "internalType": "address payable",
          "name": "to",
          "type": "address"
        }
      ],
      "name": "payWinner",
      "outputs": [],
      "stateMutability": "nonpayable",
      "type": "function"
    },
    {
      "inputs": [
        {
          "internalType": "uint256",
          "name": "amount",
          "type": "uint256"
        }
      ],
      "name": "placeBet",
      "outputs": [],
      "stateMutability": "nonpayable",
      "type": "function"
    },
    {
      "stateMutability": "payable",
      "type": "receive"
    }
  ],
  "bytecode": "0x608060405234801561001057600080fd5b5061044c806100206000396000f3fe6080604052600436106100435760003560e01c806310fe7c481461004f57806347b94f83146100785780634d9b3735146100a1578063c89f2ce4146100cc5761004a565b3661004a57005b600080fd5b34801561005b57600080fd5b50610076600480360381019061007191906101f3565b6100f7565b005b34801561008457600080fd5b5061009f600480360381019061009a919061021c565b610112565b005b3480156100ad57600080fd5b506100b66101ba565b6040516100c391906102c7565b60405180910390f35b3480156100d857600080fd5b506100e16101c3565b6040516100ee91906102c7565b60405180910390f35b8060008082825461010891906102f3565b9250508190555050565b816000541015610157576040517f08c379a000000000000000000000000000000000000000000000000000000000815260040161014e906102a7565b60405180910390fd5b8073ffffffffffffffffffffffffffffffffffffffff166108fc839081150290604051600060405180830381858888f1935050505015801561019d573d6000803e3d6000fd5b50816000808282546101af9190610349565b925050819055505050565b60008054905090565b60005481565b6000813590506101d8816103e8565b92915050565b6000813590506101ed816103ff565b92915050565b60006020828403121561020557600080fd5b6000610213848285016101de565b91505092915050565b6000806040838503121561022f57600080fd5b600061023d858286016101de565b925050602061024e858286016101c9565b9150509250929050565b60006102656016836102e2565b91507f436f6e74726163742066756e647320746f6f206c6f77000000000000000000006000830152602082019050919050565b6102a1816103af565b82525050565b600060208201905081810360008301526102c081610258565b9050919050565b60006020820190506102dc6000830184610298565b92915050565b600082825260208201905092915050565b60006102fe826103af565b9150610309836103af565b9250827fffffffffffffffffffffffffffffffffffffffffffffffffffffffffffffffff0382111561033e5761033d6103b9565b5b828201905092915050565b6000610354826103af565b915061035f836103af565b925082821015610372576103716103b9565b5b828203905092915050565b60006103888261038f565b9050919050565b600073ffffffffffffffffffffffffffffffffffffffff82169050919050565b6000819050919050565b7f4e487b7100000000000000000000000000000000000000000000000000000000600052601160045260246000fd5b6103f18161037d565b81146103fc57600080fd5b50565b610408816103af565b811461041357600080fd5b5056fea26469706673582212200ab1839463864a3f39ef9f3e9235ec41455eff0d55cafde1cd15c274bc4bc16764736f6c63430008000033",
  "linkReferences": {},
  "deployedLinkReferences": {}
}