{
  "_format": "hh-sol-artifact-1",
  "contractName": "RuletaOld",
  "sourceName": "contracts/oldRulet.sol",
  "abi": [
    {
      "inputs": [
        {
          "internalType": "address payable",
          "name": "_owner",
          "type": "address"
        }
      ],
      "stateMutability": "nonpayable",
      "type": "constructor"
    },
    {
      "inputs": [
        {
          "internalType": "uint256",
          "name": "",
          "type": "uint256"
        }
      ],
      "name": "betList",
      "outputs": [
        {
          "internalType": "uint256",
          "name": "id",
          "type": "uint256"
        },
        {
          "internalType": "bytes32",
          "name": "ticker",
          "type": "bytes32"
        },
        {
          "internalType": "uint256",
          "name": "amount",
          "type": "uint256"
        },
        {
          "internalType": "address payable",
          "name": "owner",
          "type": "address"
        },
        {
          "internalType": "enum RuletaOld.BetType",
          "name": "betType",
          "type": "uint8"
        }
      ],
      "stateMutability": "view",
      "type": "function"
    },
    {
      "inputs": [
        {
          "internalType": "address",
          "name": "",
          "type": "address"
        }
      ],
      "name": "bets",
      "outputs": [
        {
          "internalType": "uint256",
          "name": "id",
          "type": "uint256"
        },
        {
          "internalType": "bytes32",
          "name": "ticker",
          "type": "bytes32"
        },
        {
          "internalType": "uint256",
          "name": "amount",
          "type": "uint256"
        },
        {
          "internalType": "address payable",
          "name": "owner",
          "type": "address"
        },
        {
          "internalType": "enum RuletaOld.BetType",
          "name": "betType",
          "type": "uint8"
        }
      ],
      "stateMutability": "view",
      "type": "function"
    },
    {
      "inputs": [
        {
          "internalType": "uint256",
          "name": "amount",
          "type": "uint256"
        },
        {
          "internalType": "bytes32",
          "name": "ticker",
          "type": "bytes32"
        }
      ],
      "name": "buyToken",
      "outputs": [],
      "stateMutability": "nonpayable",
      "type": "function"
    },
    {
      "inputs": [
        {
          "internalType": "uint256",
          "name": "amount",
          "type": "uint256"
        },
        {
          "internalType": "bytes32",
          "name": "ticker",
          "type": "bytes32"
        }
      ],
      "name": "deposit",
      "outputs": [],
      "stateMutability": "nonpayable",
      "type": "function"
    },
    {
      "inputs": [
        {
          "internalType": "bytes32",
          "name": "ticker",
          "type": "bytes32"
        },
        {
          "internalType": "address",
          "name": "tokenAddress",
          "type": "address"
        }
      ],
      "name": "linkToken",
      "outputs": [],
      "stateMutability": "nonpayable",
      "type": "function"
    },
    {
      "inputs": [],
      "name": "nextBetId",
      "outputs": [
        {
          "internalType": "uint256",
          "name": "",
          "type": "uint256"
        }
      ],
      "stateMutability": "view",
      "type": "function"
    },
    {
      "inputs": [],
      "name": "nextTokenId",
      "outputs": [
        {
          "internalType": "uint256",
          "name": "",
          "type": "uint256"
        }
      ],
      "stateMutability": "view",
      "type": "function"
    },
    {
      "inputs": [
        {
          "internalType": "bytes32",
          "name": "ticker",
          "type": "bytes32"
        },
        {
          "internalType": "uint256",
          "name": "amount",
          "type": "uint256"
        },
        {
          "internalType": "address payable",
          "name": "betOwner",
          "type": "address"
        },
        {
          "internalType": "enum RuletaOld.BetType",
          "name": "betType",
          "type": "uint8"
        }
      ],
      "name": "placeBet",
      "outputs": [],
      "stateMutability": "nonpayable",
      "type": "function"
    },
    {
      "inputs": [
        {
          "internalType": "uint256",
          "name": "",
          "type": "uint256"
        }
      ],
      "name": "tokenList",
      "outputs": [
        {
          "internalType": "bytes32",
          "name": "",
          "type": "bytes32"
        }
      ],
      "stateMutability": "view",
      "type": "function"
    },
    {
      "inputs": [
        {
          "internalType": "bytes32",
          "name": "",
          "type": "bytes32"
        }
      ],
      "name": "tokens",
      "outputs": [
        {
          "internalType": "uint256",
          "name": "id",
          "type": "uint256"
        },
        {
          "internalType": "bytes32",
          "name": "ticker",
          "type": "bytes32"
        },
        {
          "internalType": "address",
          "name": "tokenAddress",
          "type": "address"
        }
      ],
      "stateMutability": "view",
      "type": "function"
    },
    {
      "inputs": [
        {
          "internalType": "bytes32",
          "name": "",
          "type": "bytes32"
        },
        {
          "internalType": "bytes32",
          "name": "",
          "type": "bytes32"
        }
      ],
      "name": "traderBalances",
      "outputs": [
        {
          "internalType": "uint256",
          "name": "",
          "type": "uint256"
        }
      ],
      "stateMutability": "view",
      "type": "function"
    },
    {
      "inputs": [
        {
          "internalType": "address",
          "name": "winnerAddress",
          "type": "address"
        }
      ],
      "name": "winner",
      "outputs": [],
      "stateMutability": "nonpayable",
      "type": "function"
    },
    {
      "inputs": [
        {
          "internalType": "uint256",
          "name": "amount",
          "type": "uint256"
        },
        {
          "internalType": "bytes32",
          "name": "ticker",
          "type": "bytes32"
        }
      ],
      "name": "withdraw",
      "outputs": [],
      "stateMutability": "nonpayable",
      "type": "function"
    },
    {
      "stateMutability": "payable",
      "type": "receive"
    }
  ],
  "bytecode": "0x60806040523480156200001157600080fd5b5060405162001b2138038062001b21833981810160405281019062000037919062000095565b806000806101000a81548173ffffffffffffffffffffffffffffffffffffffff021916908373ffffffffffffffffffffffffffffffffffffffff160217905550506200010f565b6000815190506200008f81620000f5565b92915050565b600060208284031215620000a857600080fd5b6000620000b8848285016200007e565b91505092915050565b6000620000ce82620000d5565b9050919050565b600073ffffffffffffffffffffffffffffffffffffffff82169050919050565b6200010081620000c1565b81146200010c57600080fd5b50565b611a02806200011f6000396000f3fe6080604052600436106100c65760003560e01c80639aca27921161007f578063a8d2021a11610059578063a8d2021a1461029d578063bab220b2146102c6578063c9630cb0146102ef578063dbe6043814610318576100cd565b80639aca2792146101f85780639e4ccd6f146102235780639ead722214610260576100cd565b80632ad95786146100d257806375794a3c146100fb57806386899e511461012657806386a4e5b81461014f57806389a78f1a14610178578063904194a3146101b9576100cd565b366100cd57005b600080fd5b3480156100de57600080fd5b506100f960048036038101906100f491906112a4565b610359565b005b34801561010757600080fd5b50610110610714565b60405161011d919061166b565b60405180910390f35b34801561013257600080fd5b5061014d6004803603810190610148919061131f565b61071a565b005b34801561015b57600080fd5b5061017660048036038101906101719190611397565b610803565b005b34801561018457600080fd5b5061019f600480360381019061019a91906112a4565b610b37565b6040516101b09594939291906116bd565b60405180910390f35b3480156101c557600080fd5b506101e060048036038101906101db91906112f6565b610b9a565b6040516101ef93929190611686565b60405180910390f35b34801561020457600080fd5b5061020d610be4565b60405161021a919061166b565b60405180910390f35b34801561022f57600080fd5b5061024a6004803603810190610245919061135b565b610bea565b604051610257919061166b565b60405180910390f35b34801561026c57600080fd5b50610287600480360381019061028291906113fa565b610c0f565b60405161029491906115f0565b60405180910390f35b3480156102a957600080fd5b506102c460048036038101906102bf9190611423565b610c33565b005b3480156102d257600080fd5b506102ed60048036038101906102e89190611423565b610ea4565b005b3480156102fb57600080fd5b5061031660048036038101906103119190611423565b610f85565b005b34801561032457600080fd5b5061033f600480360381019061033a91906113fa565b6111b3565b6040516103509594939291906116bd565b60405180910390f35b6000600560008373ffffffffffffffffffffffffffffffffffffffff1673ffffffffffffffffffffffffffffffffffffffff1681526020019081526020016000206040518060a00160405290816000820154815260200160018201548152602001600282015481526020016003820160009054906101000a900473ffffffffffffffffffffffffffffffffffffffff1673ffffffffffffffffffffffffffffffffffffffff1673ffffffffffffffffffffffffffffffffffffffff1681526020016003820160149054906101000a900460ff166002811115610464577f4e487b7100000000000000000000000000000000000000000000000000000000600052602160045260246000fd5b600281111561049c577f4e487b7100000000000000000000000000000000000000000000000000000000600052602160045260246000fd5b815250509050600060028111156104dc577f4e487b7100000000000000000000000000000000000000000000000000000000600052602160045260246000fd5b81608001516002811115610519577f4e487b7100000000000000000000000000000000000000000000000000000000600052602160045260246000fd5b148061059957506001600281111561055a577f4e487b7100000000000000000000000000000000000000000000000000000000600052602160045260246000fd5b81608001516002811115610597577f4e487b7100000000000000000000000000000000000000000000000000000000600052602160045260246000fd5b145b15610619576000600282604001516105b19190611777565b9050816060015173ffffffffffffffffffffffffffffffffffffffff166108fc829081150290604051600060405180830381858888f193505050501580156105fd573d6000803e3d6000fd5b50806001600082825461061091906117d1565b92505081905550505b600280811115610652577f4e487b7100000000000000000000000000000000000000000000000000000000600052602160045260246000fd5b8160800151600281111561068f577f4e487b7100000000000000000000000000000000000000000000000000000000600052602160045260246000fd5b1415610710576000602482604001516106a89190611777565b9050816060015173ffffffffffffffffffffffffffffffffffffffff166108fc829081150290604051600060405180830381858888f193505050501580156106f4573d6000803e3d6000fd5b50806001600082825461070791906117d1565b92505081905550505b5050565b60045481565b604051806060016040528060045481526020018381526020018273ffffffffffffffffffffffffffffffffffffffff1681525060026000848152602001908152602001600020600082015181600001556020820151816001015560408201518160020160006101000a81548173ffffffffffffffffffffffffffffffffffffffff021916908373ffffffffffffffffffffffffffffffffffffffff1602179055509050506003829080600181540180825580915050600190039060005260206000200160009091909190915055600460008154809291906107fa9061188e565b91905055505050565b836000805b600380549050811015610879578260038281548110610850577f4e487b7100000000000000000000000000000000000000000000000000000000600052603260045260246000fd5b9060005260206000200154141561086657600191505b80806108719061188e565b915050610808565b5060019050806108be576040517f08c379a00000000000000000000000000000000000000000000000000000000081526004016108b59061164b565b60405180910390fd5b60006040518060a0016040528060075481526020018881526020018781526020018673ffffffffffffffffffffffffffffffffffffffff168152602001856002811115610934577f4e487b7100000000000000000000000000000000000000000000000000000000600052602160045260246000fd5b815250905080600560008773ffffffffffffffffffffffffffffffffffffffff1673ffffffffffffffffffffffffffffffffffffffff16815260200190815260200160002060008201518160000155602082015181600101556040820151816002015560608201518160030160006101000a81548173ffffffffffffffffffffffffffffffffffffffff021916908373ffffffffffffffffffffffffffffffffffffffff16021790555060808201518160030160146101000a81548160ff02191690836002811115610a2f577f4e487b7100000000000000000000000000000000000000000000000000000000600052602160045260246000fd5b021790555090505060076000815480929190610a4a9061188e565b91905055506002600088815260200190815260200160002060020160009054906101000a900473ffffffffffffffffffffffffffffffffffffffff1673ffffffffffffffffffffffffffffffffffffffff166323b872dd3330896040518463ffffffff1660e01b8152600401610ac293929190611590565b602060405180830381600087803b158015610adc57600080fd5b505af1158015610af0573d6000803e3d6000fd5b505050506040513d601f19601f82011682018060405250810190610b1491906112cd565b508560016000828254610b279190611721565b9250508190555050505050505050565b60056020528060005260406000206000915090508060000154908060010154908060020154908060030160009054906101000a900473ffffffffffffffffffffffffffffffffffffffff16908060030160149054906101000a900460ff16905085565b60026020528060005260406000206000915090508060000154908060010154908060020160009054906101000a900473ffffffffffffffffffffffffffffffffffffffff16905083565b60075481565b6008602052816000526040600020602052806000526040600020600091509150505481565b60038181548110610c1f57600080fd5b906000526020600020016000915090505481565b60008054906101000a900473ffffffffffffffffffffffffffffffffffffffff1673ffffffffffffffffffffffffffffffffffffffff163373ffffffffffffffffffffffffffffffffffffffff1614610cc1576040517f08c379a0000000000000000000000000000000000000000000000000000000008152600401610cb89061160b565b60405180910390fd5b806000805b600380549050811015610d37578260038281548110610d0e577f4e487b7100000000000000000000000000000000000000000000000000000000600052603260045260246000fd5b90600052602060002001541415610d2457600191505b8080610d2f9061188e565b915050610cc6565b506001905080610d7c576040517f08c379a0000000000000000000000000000000000000000000000000000000008152600401610d739061164b565b60405180910390fd5b836001541015610dc1576040517f08c379a0000000000000000000000000000000000000000000000000000000008152600401610db89061162b565b60405180910390fd5b6002600084815260200190815260200160002060020160009054906101000a900473ffffffffffffffffffffffffffffffffffffffff1673ffffffffffffffffffffffffffffffffffffffff1663a9059cbb33866040518363ffffffff1660e01b8152600401610e329291906115c7565b602060405180830381600087803b158015610e4c57600080fd5b505af1158015610e60573d6000803e3d6000fd5b505050506040513d601f19601f82011682018060405250810190610e8491906112cd565b508360016000828254610e9791906117d1565b9250508190555050505050565b6002600082815260200190815260200160002060020160009054906101000a900473ffffffffffffffffffffffffffffffffffffffff1673ffffffffffffffffffffffffffffffffffffffff1663a9059cbb33846040518363ffffffff1660e01b8152600401610f159291906115c7565b602060405180830381600087803b158015610f2f57600080fd5b505af1158015610f43573d6000803e3d6000fd5b505050506040513d601f19601f82011682018060405250810190610f6791906112cd565b508160016000828254610f7a9190611721565b925050819055505050565b60008054906101000a900473ffffffffffffffffffffffffffffffffffffffff1673ffffffffffffffffffffffffffffffffffffffff163373ffffffffffffffffffffffffffffffffffffffff1614611013576040517f08c379a000000000000000000000000000000000000000000000000000000000815260040161100a9061160b565b60405180910390fd5b806000805b600380549050811015611089578260038281548110611060577f4e487b7100000000000000000000000000000000000000000000000000000000600052603260045260246000fd5b9060005260206000200154141561107657600191505b80806110819061188e565b915050611018565b5060019050806110ce576040517f08c379a00000000000000000000000000000000000000000000000000000000081526004016110c59061164b565b60405180910390fd5b6002600084815260200190815260200160002060020160009054906101000a900473ffffffffffffffffffffffffffffffffffffffff1673ffffffffffffffffffffffffffffffffffffffff166323b872dd3330876040518463ffffffff1660e01b815260040161114193929190611590565b602060405180830381600087803b15801561115b57600080fd5b505af115801561116f573d6000803e3d6000fd5b505050506040513d601f19601f8201168201806040525081019061119391906112cd565b5083600160008282546111a69190611721565b9250508190555050505050565b600681815481106111c357600080fd5b90600052602060002090600402016000915090508060000154908060010154908060020154908060030160009054906101000a900473ffffffffffffffffffffffffffffffffffffffff16908060030160149054906101000a900460ff16905085565b60008135905061123581611949565b92915050565b60008135905061124a81611960565b92915050565b60008151905061125f81611977565b92915050565b6000813590506112748161198e565b92915050565b600081359050611289816119a5565b92915050565b60008135905061129e816119b5565b92915050565b6000602082840312156112b657600080fd5b60006112c484828501611226565b91505092915050565b6000602082840312156112df57600080fd5b60006112ed84828501611250565b91505092915050565b60006020828403121561130857600080fd5b600061131684828501611265565b91505092915050565b6000806040838503121561133257600080fd5b600061134085828601611265565b925050602061135185828601611226565b9150509250929050565b6000806040838503121561136e57600080fd5b600061137c85828601611265565b925050602061138d85828601611265565b9150509250929050565b600080600080608085870312156113ad57600080fd5b60006113bb87828801611265565b94505060206113cc8782880161128f565b93505060406113dd8782880161123b565b92505060606113ee8782880161127a565b91505092959194509250565b60006020828403121561140c57600080fd5b600061141a8482850161128f565b91505092915050565b6000806040838503121561143657600080fd5b60006114448582860161128f565b925050602061145585828601611265565b9150509250929050565b61146881611817565b82525050565b61147781611805565b82525050565b61148681611835565b82525050565b6114958161187c565b82525050565b60006114a8602f83611710565b91507f4f6e6c7920636173696e6f206f776e65722063616e206465706f736974206f7260008301527f2077697468647261772066756e647300000000000000000000000000000000006020830152604082019050919050565b600061150e600d83611710565b91507f46756e647320746f6f206c6f77000000000000000000000000000000000000006000830152602082019050919050565b600061154e601f83611710565b91507f546f6b656e206e6f7420616c6c6f7765642062792054686520436173696e6f006000830152602082019050919050565b61158a81611872565b82525050565b60006060820190506115a5600083018661146e565b6115b2602083018561146e565b6115bf6040830184611581565b949350505050565b60006040820190506115dc600083018561146e565b6115e96020830184611581565b9392505050565b6000602082019050611605600083018461147d565b92915050565b600060208201905081810360008301526116248161149b565b9050919050565b6000602082019050818103600083015261164481611501565b9050919050565b6000602082019050818103600083015261166481611541565b9050919050565b60006020820190506116806000830184611581565b92915050565b600060608201905061169b6000830186611581565b6116a8602083018561147d565b6116b5604083018461146e565b949350505050565b600060a0820190506116d26000830188611581565b6116df602083018761147d565b6116ec6040830186611581565b6116f9606083018561145f565b611706608083018461148c565b9695505050505050565b600082825260208201905092915050565b600061172c82611872565b915061173783611872565b9250827fffffffffffffffffffffffffffffffffffffffffffffffffffffffffffffffff0382111561176c5761176b6118d7565b5b828201905092915050565b600061178282611872565b915061178d83611872565b9250817fffffffffffffffffffffffffffffffffffffffffffffffffffffffffffffffff04831182151516156117c6576117c56118d7565b5b828202905092915050565b60006117dc82611872565b91506117e783611872565b9250828210156117fa576117f96118d7565b5b828203905092915050565b600061181082611852565b9050919050565b600061182282611852565b9050919050565b60008115159050919050565b6000819050919050565b600081905061184d82611935565b919050565b600073ffffffffffffffffffffffffffffffffffffffff82169050919050565b6000819050919050565b60006118878261183f565b9050919050565b600061189982611872565b91507fffffffffffffffffffffffffffffffffffffffffffffffffffffffffffffffff8214156118cc576118cb6118d7565b5b600182019050919050565b7f4e487b7100000000000000000000000000000000000000000000000000000000600052601160045260246000fd5b7f4e487b7100000000000000000000000000000000000000000000000000000000600052602160045260246000fd5b6003811061194657611945611906565b5b50565b61195281611805565b811461195d57600080fd5b50565b61196981611817565b811461197457600080fd5b50565b61198081611829565b811461198b57600080fd5b50565b61199781611835565b81146119a257600080fd5b50565b600381106119b257600080fd5b50565b6119be81611872565b81146119c957600080fd5b5056fea26469706673582212205e76c3730403f5ccf3a087479bc2114baf5286111298e17df2662f198baff1d364736f6c63430008000033",
  "linkReferences": {},
  "deployedLinkReferences": {}
}